:020000040800F2
:1000000000500020253D0008E5370008E7370008CC
:1000100000000000000000000000000000000000E0
:10002000000000000000000000000000E9370008A8
:100030000000000000000000EB370008ED3700086A
:10004000753D0008753D000849380008753D0008F9
:10005000753D0008F53700080D3800081138000814
:10006000753D0008753D0008753D000829380008F9
:10007000753D0008753D0008753D0008753D000898
:10008000753D0008753D0008753D00080000000042
:10009000753D0008753D0008753D0008753D000878
:1000A000753D0008753D0008753D0008753D000868
:1000B000753D00083938000800000000753D000853
:1000C00010B5064C2378002B07D1054B002B02D02E
:1000D000044800E000BF0123237010BD340100205C
:1000E0000000000028220108044B10B5002B03D0AB
:1000F0000349044800E000BF10BDC04600000000F6
:1001000038010020282201080023C25C0133002AA4
:10011000FBD1581E7047000002B4714649084900DF
:10012000095649008E4402BC7047C04602B471466D
:1001300049084900095C49008E4402BC7047C0462A
:1001400003B47146490840004900095E49008E44E5
:1001500003BC704703B47146490840004900095A7E
:1001600049008E4403BC7047002243088B4274D37D
:1001700003098B425FD3030A8B4244D3030B8B42A8
:1001800028D3030C8B420DD3FF22090212BA030CB1
:100190008B4202D31212090265D0030B8B4219D392
:1001A00000E0090AC30B8B4201D3CB03C01A5241B2
:1001B000830B8B4201D38B03C01A5241430B8B42FA
:1001C00001D34B03C01A5241030B8B4201D30B03E3
:1001D000C01A5241C30A8B4201D3CB02C01A52410A
:1001E000830A8B4201D38B02C01A5241430A8B42CD
:1001F00001D34B02C01A5241030A8B4201D30B02B6
:10020000C01A5241CDD2C3098B4201D3CB01C01ACF
:10021000524183098B4201D38B01C01A52414309D9
:100220008B4201D34B01C01A524103098B4201D3C7
:100230000B01C01A5241C3088B4201D3CB00C01A34
:10024000524183088B4201D38B00C01A52414308AC
:100250008B4201D34B00C01A5241411A00D20146D1
:10026000524110467047FFE701B5002000F0F0F85A
:1002700002BDC0460029F7D076E7704703460B431E
:100280007FD4002243088B4274D303098B425FD38F
:10029000030A8B4244D3030B8B4228D3030C8B42BB
:1002A0000DD3FF22090212BA030C8B4202D31212A1
:1002B000090265D0030B8B4219D300E0090AC30B76
:1002C0008B4201D3CB03C01A5241830B8B4201D323
:1002D0008B03C01A5241430B8B4201D34B03C01A0C
:1002E0005241030B8B4201D30B03C01A5241C30A84
:1002F0008B4201D3CB02C01A5241830A8B4201D3F5
:100300008B02C01A5241430A8B4201D34B02C01ADE
:100310005241030A8B4201D30B02C01A5241CDD283
:10032000C3098B4201D3CB01C01A524183098B42CE
:1003300001D38B01C01A524143098B4201D34B01B7
:10034000C01A524103098B4201D30B01C01A52411A
:10035000C3088B4201D3CB00C01A524183088B42A1
:1003600001D38B00C01A524143088B4201D34B008A
:10037000C01A5241411A00D20146524110467047FC
:100380005DE0CA0F00D04942031000D34042534001
:1003900000229C4603098B422DD3030A8B4212D3C1
:1003A000FC22890112BA030A8B420CD389019211F3
:1003B0008B4208D3890192118B4204D389013AD030
:1003C000921100E08909C3098B4201D3CB01C01A05
:1003D000524183098B4201D38B01C01A5241430918
:1003E0008B4201D34B01C01A524103098B4201D306
:1003F0000B01C01A5241C3088B4201D3CB00C01A73
:10040000524183088B4201D38B00C01A5241D9D28A
:1004100043088B4201D34B00C01A5241411A00D20B
:100420000146634652415B10104601D34042002B07
:1004300000D54942704763465B1000D3404201B586
:10044000002000F005F802BD0029F8D016E770473B
:100450007047C0468446100062468C4619006346C9
:1004600000E0C0461FB500F03DFF002801D4002188
:10047000C8421FBD10B500F08DFE4042013010BDD6
:1004800010B500F02FFF002801DB002010BD012077
:1004900010BDC04610B500F025FF002801DD00208A
:1004A00010BD012010BDC04610B500F0B5FE0028FB
:1004B00001DC002010BD012010BDC04610B500F0C9
:1004C000ABFE002801DA002010BD012010BDC0469F
:1004D000002B11D1002A0FD1002900D1002802D011
:1004E0000021C943080007B4024802A14018029045
:1004F00003BDC0465DFFFFFF03B4684601B5029827
:1005000000F034F8019B9E4602B00CBC7047C04618
:10051000F0B5CE469946030C9C46130447461B0C87
:100520001D000E0061460404240C80B50700100C69
:100530004B436543414360432C0CC01820188C4644
:10054000834203D980235B029846C44449467943D9
:100550005643030C2D042D0C8919634400044019E3
:10056000C918C0BCB946B046F0BDC046F0B5574644
:100570004E464546DE46E0B504000D0092469946DB
:1005800083B08B4230D82DD04946504600F0AAFFA8
:1005900029000600200000F0A5FF331A9846203BF2
:1005A00034D49B4653465A46934042461F00534616
:1005B00093401E00AF423BD8AF4200D179E05B468A
:1005C000A41BBD41002B00DA76E00022002300923C
:1005D000019301235A4693400193012342469340DD
:1005E000009329E08242CFD9002200230092019398
:1005F0000C9B002B01D01C605D600098019903B03A
:10060000F0BCBB46B246A946A046F0BD42469B465A
:1006100020239B1A5246DA40414613004A468A403C
:10062000170042461F43534693401E00AF42C3D9B2
:1006300000220023009201934346002BD8D0FB07F1
:1006400072081A4346467B080EE0AB4201D1A24233
:100650000CD8A41A9D41012024196D410021013EAE
:1006600024184D41002E06D0AB42EED9013E24198C
:100670006D41002EF8D1009801995B46001969413F
:10068000002B24DB2B005A464446D3402A00E2408C
:100690001C005B461500002B2ADB26009E40330021
:1006A00026004746BE403200801A994100900191D1
:1006B0009EE7A342BCD882E74246202300219B1A32
:1006C0000022009101920122DA40019285E7424620
:1006D00020239B1A2A0046469A402300F3404446B2
:1006E00013432A00E2401C005B461500002BD4DABD
:1006F00042462F002023260097409B1ADE403B00F5
:100700003343CDE7F0B5C64643025B0A4500DA0045
:10071000C40F48024F009446420A1E00904600B59E
:100720002D0E3F0EC90F8009FF2F59D001225140D5
:100730008C4239D0EA1B002A58DD002F68D0FF2DEB
:1007400000D1D1E08023DB0418431B2A00DCE3E066
:1007500001236246D31A5A0100D4ACE09B019E09E2
:10076000300000F0A1FE330005388340854200DCF4
:10077000C6E0B24A2D1A13405A0704D00F221A407D
:10078000042A00D004335A0100D497E06A1CFE2DDD
:1007900000D184E09B015E0AD2B2D0053043E40769
:1007A000204380BCB846F0BDEA1B002A41DD002F83
:1007B0006BD0FF2D00D197E08023DB0418431B2A68
:1007C00000DCCCE0012363445A0174D50135FF2DD0
:1007D00065D001229A491A405B080B401343CBE7CE
:1007E00000281FD08C4222D02A00FF3A002A35D0A0
:1007F0007A1B002D00D099E06346002B00D1DDE08C
:10080000531E012A00D105E1FF2A6BD01A0094E0A3
:10081000002873D0511E012A00D1DFE0FF2A63D0E7
:100820000A0092E701225140A14200D082E72A004B
:10083000FF3A002A36D07A1B002D00D1AAE0FF2F04
:1008400000D1DAE080236146DB0419438C461B2A81
:1008500000DCD4E001233D001B18B5E7FE276A1C2D
:10086000174271D1002D00D09EE06346002B00D1CD
:10087000D5E00022002800D18FE71B1A5E0100D4CA
:10088000D6E063460C00C31A76E7002836D0511E26
:10089000012A00D19AE0FF2A26D00A008FE7FF2222
:1008A00000267AE7FE276A1C174262D0FF2AF6D09C
:1008B0001500604443085A0700D05FE7DB08FF2DAE
:1008C00012D05B025E0AEAB267E76246002A00D1F4
:1008D00093E0002808D08022D203134204D040467F
:1008E000104201D10C004346002BD8D08026F603DD
:1008F0001E437602FF22760A4FE743461500DEE7E5
:100900002022401B0130121A19009340C1405A1E88
:10091000934100250B432FE720239B1A01009840A9
:100920000300D1405A1E93410B4312E7FF2FD9D049
:1009300080236446DB041C43A4461B2A52DD0123AA
:100940000C003D00C31A06E763461E1A730139D432
:10095000002E00D004E70024002200261DE72023FB
:100960009B1A010098400300D1405A1E93410B434B
:1009700029E7002DA9D16346002B56D0002200287C
:1009800000D10AE7030063445A0194D52B4A01358C
:10099000134090E76346002BAFD0531E012A15D0B9
:1009A000FF2A2AD01A0052E76246002A91D1002875
:1009B00098D180260024FF22F603EEE60C00434681
:1009C00015007CE763460C00C61AC9E603006344C1
:1009D00001255A0100D46EE70225FAE66346012597
:1009E0001B1AB8E664462023D4409B1A62469A40FC
:1009F00013005A1E93412343A2E7434674E761461E
:100A00002023D1409B1A62469A4013005A1E9341FC
:100A10000B4320E763460C000125C31A9BE6002820
:100A200099D00C0046460022B7E646460022B4E6BE
:100A3000002B00D03FE700240026AEE6FFFFFFFBBF
:100A4000FFFFFF7D70B5041E0ED000F02DFD9E232C
:100A500001001B1A962B0CDC08282CD008398C407E
:100A60006402640AD8B201E000200024C0052043DB
:100A700070BD992B0ADD020020001B32904002005D
:100A8000501E82410520401AC4401443052916DC3B
:100A900022000F480240650709D00F252C40042C86
:100AA00005D00432540102D59F2302405B1A920103
:100AB000540AD8B2DAE764029620640AD6E74A1FDD
:100AC00094402200024802406507F0D0E5E7C046A6
:100AD000FFFFFFFBF0B54F464646D6460400C0B5C3
:100AE0001F000B0310004E005B0ACD0F610F7A0050
:100AF0001943E3003C03FF0FBC46640A470F27433A
:100B0000760D520DC000B9468046B71A654500D132
:100B10009BE0002F00DC84E0002A00D1BEE0C84A40
:100B2000964200D124E180224C4612041443A1468F
:100B3000382F00DD67E11F2F00DDD6E120224C4673
:100B4000D21B9440A2464446FC4020005446044335
:100B500040469040421E90414A46FA400443891A5A
:100B60001C1BA342924152428B1A9A4653461B02C7
:100B700000D4D4E053465A02530A9A465346002BF7
:100B800000D104E1504600F08FFC0300083B202216
:100B90002000D21A5146D040994002009C400A439E
:100BA000B34200DA02E19B1B591C1F2900DDA7E0BC
:100BB0002023100026005B1A9C409840CE40CA407B
:100BC000631E9C413043924600260443630709D0CC
:100BD0000F232340042B05D0231DA342A4416442CC
:100BE000A2441C0053461B0200D49BE0944B0136E8
:100BF0009E4200D1B8E053469249E4080B401900E8
:100C00005B07234372054C02240B520D1205ED07BE
:100C100022432A4318001100E0BCBA46B146A84658
:100C2000F0BD002F48D0971B002E00D00EE10C0025
:100C30001C4300D1B7E17C1E012F00D126E2804D7C
:100C4000AF4200D1D5E1270007E1002F00DCB2E080
:100C5000002A47D07A4A964200D189E080224C4649
:100C600012041443A146382F6BDC1F2F00DC6EE109
:100C70003A004846203AD0408446202F07D04022F0
:100C80004846D21B904002004046104380464046F2
:100C9000421E904162460400144357E04A46024314
:100CA00000D103E17A1E012F00D193E1644CA742E9
:100CB00000D18AE117003BE7634C721C224200D04E
:100CC000E0E00A001A43002E00D074E1002A00D1AF
:100CD000D0E14A46024300D0E3E14A07DB08134370
:100CE000C90829E04A46024300D17DE17A1E012F5E
:100CF00000D1E0E0524CA74200D166E11700B2E714
:100D000010001F3BD840202903D040235B1A9A4093
:100D10001443631E9C41002300269A460443630744
:100D200000D055E75246E3085207134352463700B6
:100D3000D108434A97421FD009037A050C0B520D84
:100D400064E742464C461443621E9441E4189C42B8
:100D50009241524292468A4453461B02DFD5384B99
:100D600001369E4200D0B3E03200002400234DE75C
:100D70004A07DB081343C9081A000A4300D100E2FE
:100D8000802424030C4324032D4A240B3EE7200037
:100D900000F08AFB030018331F2B00DCF7E622006B
:100DA000083882400024B34200DBFCE6F61A254BEB
:100DB0001A4092460AE7002F2BD0971B002E00D135
:100DC000B8E01F4CA24200D11CE18024240421433E
:100DD000382F00DD1EE11F2F00DD9EE120260C00D4
:100DE000F61B1800B340B440F8405E1EB341F94012
:100DF00004431C438944444444459B415B424B4467
:100E00009A461600A8E742464C461443621E944197
:100E1000A6E60D4C721C224200D0A8E00A001A433C
:100E2000002E00D00AE1002A00D15EE14A460243CA
:100E300000D061E14A07DB081343C9087CE7C046DC
:100E4000FF070000FFFF7FFFFE070000CF4CA2421C
:100E500000D1CEE0802424042143382F5BDC1F2FF7
:100E600000DDDCE020250C00ED1B1E00AB40AC409B
:100E7000FE405D1EAB413443F9401C434B465B1AB8
:100E800099464CE04A461C1A881AA34292415242A3
:100E9000924602005046121A9246120278D45346E5
:100EA000234300D06AE60021002545E74A07DB0816
:100EB0001343C9083DE71C189C429B4149448A469C
:100EC0005B429A44534601261B0200D427E70226C0
:100ED0005246AF4B01211A401300214062080A43D9
:100EE000DC075B089A46144370E63A004C46203A09
:100EF000D440A446202F07D040224846D21B904021
:100F000002004046104380464046421E90416246E1
:100F10000400144324E619430C00631E9C4143461D
:100F20001C1BA0459B4149465B42CB1A9A4665462D
:100F300016001BE60C001C4300D1C7E07C1E012FED
:100F400000D1F9E0914EB7425CD0270040E7202263
:100F50004C464046D21B9440F840044340469040E3
:100F6000421E90414A46FA4004438918EEE6874CF7
:100F7000A24200D1F9E6181898429B4149445B42CD
:100F8000CB18DC0740085B089A4616000443C6E607
:100F90004246D41AA04580414B464042591A0B1A8A
:100FA0009A466546EAE54B464A46C0085B076546F1
:100FB0000343D108BDE6002A00D08EE04B46034330
:100FC00017D1802100250903DAE64A07DB0813431D
:100FD000C908D1E61C1A4A46A3429B41891A5B42C2
:100FE000CB1A9A460126C1E54A07DB081343C90814
:100FF0009FE64346D8084B464A465B07654603438F
:10100000D108B9E64346D8084B464A465B07034336
:10101000D108B1E619430C00631E9C41EBE63C008D
:101020000D00203CE540202F03D04024E41BA140CC
:101030000B431C00631E9C412C4370E7002AE1D047
:101040004A460243C1D04A07DB0813438022C9083D
:101050001203114208D04846C408144204D1434642
:101060002100DB08420713435A0FDB005207DB085D
:10107000134381E64B46034300D114E74B464A46EF
:10108000C0085B0765460343D10855E6C41AA0456E
:1010900080414B464042591A0B1A9A466546012632
:1010A00064E51C1A4A46A34280418A1A4042121A39
:1010B0009246120249D54246D41AA04580414B4679
:1010C0004042591A0B1A9A4665467FE54B464A46F6
:1010D000C0085B070343D1082BE64A46DB080243FE
:1010E00038D14A071343C90846E64B464A46C0086A
:1010F0005B070343D1081FE61C189C429B414944EF
:101100008A465B429A4453461B0200D407E6524685
:101110001F4B01261A40924601E63C000E00203C7F
:10112000E640202F03D04024E41BA1400B431C00C9
:10113000631E9C4134435EE64344834280414944FC
:101140008A4640421C008244BCE65346234300D1F9
:10115000A9E6E4E54A0713438022C90812031142B5
:1011600009D04846C408144205D1434665462100CB
:10117000DB08420713435A0FDB00DB085207134317
:10118000FAE50023014A1C0040E5C046FF070000C5
:10119000FFFF7FFFF0B54E464546DE465746904678
:1011A000E0B517001A03120B0500844619480E0318
:1011B0004C0091465A00DB0F9B46360B640DC90F5D
:1011C000520D844219D0824210D0012094420ED197
:1011D0004E450CD10120C44509D1594517D0002CEA
:1011E00005D130002843431E984100E00120F0BCA7
:1011F000BB46B246A946A046F0BD330001202B43B2
:10120000F5D1A242F3D14B463B43F0D1E2E70020B7
:10121000EDE7C046FF070000F0B54746CE460400A4
:10122000180016001B031B0B2D4D4A00994680B574
:1012300043000F03A446B0463F0B520DC90F5B0D90
:10124000C00FAA4221D0AB4213D0002A22D13C4386
:10125000002B02D14D462E4322D0002C10D08142CB
:1012600022D00220013908400138C0BCB946B0463E
:10127000F0BD4D462E4329D1002AF0D13C43EED19A
:101280000028F2D101204042EFE73D0025431DD167
:101290009342EED0002BE2D14C462643DFD1E0E76B
:1012A0000020002CE1D0DCE79A420ADCE8DB4F4565
:1012B000D7D80ED000204F45D7D20029E2D0080061
:1012C000D3E74342584140000138CEE70220404274
:1012D000CBE7C445C5D80020C445C6D2EDE7C0461B
:1012E000FF070000F0B54746CE4604001800160080
:1012F0001B031B0B2C4D4A00994680B543000F037E
:10130000A446B0463F0B520DC90F5B0DC00FAA4259
:101310000DD0AB4210D0002A27D13C43002B11D175
:101320004D462E430ED10020002C15D00EE03D007E
:10133000254310D1934218D14D462E430BD1002A9C
:1013400002D13C43002C0BD0814214D00220013941
:101350000840013800E00220C0BCB946B046F0BDEC
:101360000028F9D101204042F6E7002BECD14C4691
:101370002643E9D1EAE79A4204DD4342584140005E
:101380000138E9E79A42EBDB4F45DFD806D0002071
:101390004F45E1D20029E5D00800DDE7C445D5D8A6
:1013A0000020C445D8D2F5E7FF0700000A0030B599
:1013B000134C530009030500090B00205B0DD20FED
:1013C000A34204DD0F48834202DD0F4BD01830BD2D
:1013D0008020400301430D48C01A1F2808DD0C4837
:1013E000C31AD9400B005842002AF0D11800EEE78A
:1013F000084CC540A446634499400B002B43F2E7D8
:10140000FE0300001D040000FFFFFF7F3304000007
:1014100013040000EDFBFFFF70B542024300C40F50
:10142000FE201B0E591C550A08420CD0E0218900F1
:101430008C466D07120B63441B051343E4072343DB
:101440002800190070BD002B14D1002D1BD02800DE
:1014500000F02AF80A281CDC0B232A001B1ADA40A9
:10146000030015339D400E4B12031B1A5B05120B34
:101470005B0DE1E7002D09D0130B802212031A4304
:101480006D07084BD8E700230022D5E70022054B63
:10149000D2E703002A000B3B9A400025E3E7C04651
:1014A00089030000FF0700001C2101231B04984250
:1014B00001D3000C10391B0A984201D3000A0839E5
:1014C0001B09984201D30009043902A2105C40189C
:1014D0007047C04604030202010101010000000040
:1014E0000000000010B5002903D1FFF7DDFF203018
:1014F00002E00800FFF7D8FF10BDC04610B502F0AB
:10150000D1F900F05FF810BD012010B540420FF096
:10151000C9FF10BD70B504000D00002801D10029DD
:1015200009D0022002F0F0FC034810F0B1FA2900C3
:10153000200000F0A3F970BD5001002010B5041E7A
:101540000CD00378002B06D0032002F0DDFC044809
:10155000183010F09DFA200000F0FCF910BDC046D4
:101560005001002010B5022002F0DEFC10BD10B5C5
:10157000032002F0D9FC10BD10B5041E0DD00123CC
:10158000C356002B06D10548303010F02DFA01204B
:1015900002F0CAFC200000F05BF910BD50010020F1
:1015A00010B5002102200FF041FF10BD10B5002141
:1015B00001200FF03BFF10BD10B5012002F0C4FC6C
:1015C00010BD0000F0B50024012585B03C4801F0B5
:1015D00033F9022002F056FC012002F053FC0320F4
:1015E00002F050FC22002100364B029402200195AB
:1015F00000950FF0F7FD022603222100324B0294E2
:1016000001923000220000960FF0ECFD2200210034
:101610002E4B02943000019500950FF0E3FD01215F
:1016200022002B4B009449422A482B4F10F07EF9A0
:1016300001212200294B00944942380010F076F92C
:101640000121274B2A0000944942264810F06EF9E8
:10165000FA212048490010F059FAFA2138004900CF
:1016600010F054FAFA211F48490010F04FFA2100F7
:1016700030001D4A0FF09CFF21001C4A28000FF08B
:1016800097FF01F009FA1A4C200006F07BFE2000BB
:10169000343006F029FB134810F0FAF90022154BFC
:1016A000110010000FF09EFD0028F7D10022124B10
:1016B000110010000FF096FD0028F7D105B0F0BD25
:1016C000AD150008202E0108402E0108602E0108EB
:1016D0006F15000868010020500100206515000802
:1016E000B915000880010020717E000861280008FB
:1016F00000000020802E01089E2E010807B5002260
:10170000009011001000024B0FF06CFD07BDC046A9
:10171000C42E010800B5C27989B0079282790A4BBC
:1017200006924279059202790492C27803928278F5
:101730000292427801920278009200221100100079
:101740000FF050FD09B000BDDD45010800B5C27BBA
:1017500091B00F92827B124B0E92427B0D92027BD4
:101760000C92C27A0B92827A0A92427A0992027A97
:101770000892C2790792827906924279059202799B
:101780000492C2780392827802924278019202789F
:1017900000920022110010000FF024FD11B000BDD6
:1017A000C92E010807B50022009011001000024B5D
:1017B0000FF018FD07BDC046824401080A0010B5AD
:1017C00014008EB00F340D94013C0C94013C0B942A
:1017D000013C0A94013C0994013C0894013C0794A3
:1017E000013C0694D41D0594941D0494541D039447
:1017F000141D0294D41C0194941C4B1C00940249A7
:1018000010F008FB0EB010BD1B2F0108432210B5CD
:10181000094C63681A706423FF33238006F046FB8B
:10182000012802D0054810F033F9002320001A00E7
:10183000190006F0F1FB10BD4400002098010020C3
:1018400010B5002104200FF0F1FD10BD01207047FC
:1018500010B5002809D0407840B2002805D1020018
:101860000100044B0FF0BEFC10BD0022024B110022
:101870001000F7E76B2F0108792F0108F0B52E4B08
:101880008DB006AA05000C0043CB43C243CB43C234
:10189000002D25D06B78002B22D01E1CF22B01D9F5
:1018A000264B1E78F6B201962A78254B009200222C
:1018B000110010000FF096FC00276A68214BD25DE2
:1018C000013700920022110010000FF08BFCFBB2D8
:1018D0009E42F2D800221C4B110010000FF082FC37
:1018E000002C1DD018216A460C2352180325022112
:1018F0000426E356607B9B00D25861566557A65775
:1019000000280FD000920022E07B01910590A07B7F
:10191000110004900D4B1000039602950FF062FC2D
:101920000DB0F0BD0191009201000200084B03963A
:1019300002950FF057FCF3E740220108F434010848
:101940008C2F01089A2F0108033201089F2F0108EC
:10195000D62F010810B500280BD08378012B08D1B1
:10196000C378002B05D00022024B110010000FF0AD
:1019700039FC10BDFB2F0108BFF34F8F034B044A06
:10198000DA60BFF34F8FC046FDE7C04600ED00E0D0
:101990000400FA0510B50FF0DDFBFFF7AFFE0020E5
:1019A00010BD000007B50B4901AA10F033FA0A4B2D
:1019B000012803D10198032807D9084B0022110000
:1019C00010000FF00FFC02200EBDC0B20FF0BCFBE8
:1019D0000020F9E74A3401081130010838300108C5
:1019E00000B593B007A80FF07BFE07980E4B09A92E
:1019F000C0180FF0F9FE0E9A0C490D4B52180592C3
:101A00000D9A013204920C9A0392099A02920A9A50
:101A100001920B9A00920022110010000FF0E2FBDD
:101A2000002013B000BDC0460E1C00006C07000073
:101A30007C30010813B5684606F0FCFC0400022067
:101A4000002C03D16846FFF765FE200016BD00009C
:101A50001F2300B589B06B4405931E236B44049388
:101A60001D236B44039307AB02931B236B44019329
:101A70001A236B440093192308496B4406AA10F0FB
:101A8000C9F903000220082B05D106A806F0EAFCDC
:101A9000431E9841C0B209B000BDC046432F0108A3
:101AA0001FB5684606F086FE04000120002C03D115
:101AB0006846FFF74BFE200004B010BD1FB5694615
:101AC000FFF77CFE03000220102B05D1684606F0CC
:101AD00085FE431E9841C0B205B000BD1FB56846E3
:101AE00006F090FE04000120002C03D16846FFF7A9
:101AF0002DFE200004B010BD1FB56946FFF75EFE45
:101B000003000220102B05D1684606F08FFE431E0D
:101B10009841C0B205B000BD1FB5684606F09AFEF8
:101B200004000120002C03D16846FFF70FFE2000BF
:101B300004B010BD1FB56946FFF740FE0300022048
:101B4000102B05D1684606F099FE431E9841C0B29D
:101B500005B000BD1FB5684606F0A4FE04000120D4
:101B6000002C03D16846FFF7F1FD200004B010BD42
:101B70001FB56946FFF722FE03000220102B05D196
:101B8000684606F0A3FE431E9841C0B205B000BDF2
:101B900010B586B005A806F0A1FC04000220002CB8
:101BA00011D1059A2000D1B203911104090E0291BE
:101BB0001102090E120E0191009221002200034B26
:101BC0000FF010FB200006B010BDC04617460108FC
:101BD0001FB503AB01930D236B4400930F220E231B
:101BE00008496B446A4410F015F903000220042BE5
:101BF00005D1039806F086FC431E9841C0B205B09B
:101C000000BDC046572F010813B5684606F0E6FB35
:101C100004000220002C03D16846FFF77BFD200062
:101C200016BD00001F2300B589B06B4405931E2329
:101C30006B4404931D236B44039307AB02931B2354
:101C40006B4401931A236B440093192308496B4496
:101C500006AA10F0DFF803000220082B05D106A821
:101C600006F0D4FB431E9841C0B209B000BDC04687
:101C7000432F010813B501A806F008FC0400022058
:101C8000002C03D10198FFF78DFD200016BD000048
:101C900007B5074901AA10F0BDF80223012805D1B4
:101CA00001987F2802D806F005FC002318000EBD1D
:101CB0004A34010810B50378302B03D00220312BB1
:101CC00001D010BD012006F067F90020F9E710B53A
:101CD00006F0FFF8431E9841400010BDF0B585B0F6
:101CE0000500FEF711FA00263F490322183184B29D
:101CF00001A810F003FA28003C4902AA039610F04C
:101D000089F801280BD0320031003000384B0FF039
:101D100069FA022005B0F0BD013C0135A4B22B7870
:101D20001A00303A092A06D8012CF5D8314B002286
:101D300011001000EBE7002CF8D03A2BF6D16B78AD
:101D4000302B03D0312B0AD02B4BF0E70026631E3B
:101D5000012B02D9AB783A2B03D0284BE7E70126B9
:101D6000F5E70027033CA4B20335012C13D96A46DA
:101D70002B78234913716B7801A85371214B5A6852
:101D8000D21910F047F80128C3D1023C0137A4B2A0
:101D90000235F22FE9D1002CBBD11A48029B310049
:101DA000037003AA2300477006F036F906300628B0
:101DB00016D8FEF7BBF904130B170B150600082005
:101DC000A8E70398431E9841C000A3E706F06EF809
:101DD00003000520012B9DD102389BE7092099E7DC
:101DE000012097E7052095E740220108A630010869
:101DF000AA300108D1300108FE3001082531010860
:101E0000662F01084400002030B50024012585B06C
:101E10002200210020000E4B0294019500950FF046
:101E2000E1F903220192013A2100009220002200F0
:101E3000084B02940FF0D6F9220021002000064B37
:101E40000294019500950FF0CDF9200005B030BD4A
:101E5000202E0108402E0108602E010837B56B4680
:101E6000DD1D280006F074FB04000220002C03D1C5
:101E70002878FFF797FC20003EBD10B503780220BC
:101E8000303B012B05D85A1E9341D8B206F06EFBA9
:101E9000002010BD37B56B46DD1D280006F0CEF9D9
:101EA00004000220002C04D100202856FFF77AFC01
:101EB00020003EBD13B56B46DC1D220008490FF023
:101EC000A9FF0223012809D100202056C2B20F2AFF
:101ED00004D806F061FB431E9841C3B2180016BD3A
:101EE0005231010870B58EB004AD2A000F26114B97
:101EF0006E441C3313CB13C213CB13C213CB13C2C8
:101F00001B683000136006F007FA04000220002C62
:101F10000DD13278092A0AD891004959200001913F
:101F2000009221002200044B0FF05CF920000EB05B
:101F300070BDC046402201085731010813B56B46F9
:101F4000DC1D220007490FF065FF0223012807D19D
:101F50002078092804D806F0E9FA431E9841430086
:101F6000180016BD523101087FB500F0A3FD012411
:101F7000051E19D00E266E44300006F0E3F8241931
:101F8000002811D1AB683478012B25D1174B1B7E6B
:101F9000002B21D0002C1FD10F256D44280006F006
:101FA00006FC002803D00234200004B070BD2B785A
:101FB000012B01D9042B06D10D4B0022110010007A
:101FC0000FF010F9F0E7052B02D0073B022B01D8E8
:101FD000084BF2E7084BF0E700224134009411006F
:101FE0001000064B0FF0FEF80024DDE798010020FA
:101FF0005F310108663101086D3101087431010853
:1020000010B5040000F056FD0122002817D02378F7
:10201000422B16D0432B1BD09218412B0FD1836833
:10202000012B02D100220B4B1A76002005F05CFF39
:102030000522C11C03D003005A1E9341DAB21000DE
:1020400010BD806807220128F9D1024B1876EDE710
:102050000220EBE79801002037B56B46DD1D280014
:1020600006F0B4FA04000220002C03D12878FFF710
:1020700099FB20003EBD10B503780220303B012BB8
:1020800005D85A1E9341D8B206F0AEFA002010BD12
:1020900013B501A806F006FB04000220002C03D1B2
:1020A0000198FFF72BFB200016BD000007B507497C
:1020B00001AA0FF0AFFE03000220012B05D1019809
:1020C00006F053FB431E984140000EBD79310108D4
:1020D00013B501A806F0FAFA04000220002C03D17F
:1020E0000198FFF70BFB200016BD000007B507495C
:1020F00001AA0FF08FFE03000220012B05D10198E9
:1021000006F041FB431E984140000EBD79310108A5
:1021100013B501A806F09EFA04000220002C03D19A
:102120000198FFF7EBFA200016BD000007B507493C
:1021300001AA0FF06FFE03000220012B05D10198C8
:1021400006F0F7FA431E984140000EBD79310108B0
:1021500013B501A806F092FA04000220002C03D166
:102160000198FFF7CBFA200016BD000007B507491C
:1021700001AA0FF04FFE03000220012B05D10198A8
:1021800006F0E5FA431E984140000EBD7931010882
:1021900007B5684606F032FA6B461879FFF702FB7E
:1021A00000200EBD13B50400684606F027FA200093
:1021B000094901AA0FF02EFE03000220012B09D1CC
:1021C0006B461B790F2B05D8684606F0A1FA431E13
:1021D0009841400016BDC0465231010807B5684617
:1021E00006F00CFA0098FFF7DDFA00200EBD0000A3
:1021F00013B50400684606F001FA6A462000074954
:102200000FF008FE03000220012B05D1684606F0FE
:102210007FFA431E9841400016BDC046793101083F
:1022200037B56B46DD1D280006F0FFF904000220DB
:10223000002C04D100202856FFF7B4FA20003EBD40
:1022400013B56B46DC1D220007490FF0E3FD0300C8
:102250000220012B06D10020205606F04BFA431E27
:102260009841400016BDC0465231010837B56B4653
:10227000DD1D280006F095FA04000220002C03D191
:102280002878FFF78FFA20003EBD000013B56B469B
:10229000DC1D220007490FF0BDFD0223012807D1F4
:1022A0002078072804D806F07FFA431E984143009F
:1022B000180016BD5231010810B500F033FC0023A0
:1022C000984200D00333180010BD10B500F050FC48
:1022D0000023984200D00333180010BD30B5A1B0E0
:1022E0000DAD2A00714B443313CB13C213CB13C271
:1022F0001B6814A8136000F0A5FC159A6C4B0092A3
:102300000022110010000EF06DFF169A694B00922A
:102310000022110010000EF065FF149C002C4AD121
:10232000179A2100644B0092200022000EF05AFF01
:10233000189A2100614B0092200022000EF052FFFB
:10234000220021005E4B20000EF04CFF1A9A210063
:102350005C4B0092200022000EF044FF1B9A2100EB
:10236000594B0092200022000EF03CFF2200210079
:10237000564B20000EF036FF1C9A2100544B009261
:10238000200022000EF02EFF1D9A2100514B0092DA
:10239000200022000EF026FF220021004E4B2000DC
:1023A0000EF020FF1F9A21000092200022004B4BCC
:1023B0000EF018FF51E0012C00D070E0179A484B46
:1023C00091004959009200220191100011000EF075
:1023D00009FF189A434B00920022110010000EF0E2
:1023E00001FF199A404B111D00920022019110002B
:1023F00011000EF0F7FE1A9A324B009200221100E3
:1024000010000EF0EFFE1B9A2F4B009200221100DD
:1024100010000EF0E7FE0022344B110010000EF009
:10242000E1FE1C9A2A4B00920022110010000EF0CF
:10243000D9FE00222E4B110010000EF0D3FE1E9A82
:102440002C4B00920022110010000EF0CBFE002257
:10245000294B110010000EF0C5FE1F9A274B0B925E
:102460001E9A0A921D9A09921C9A0892149A07922F
:102470001B9A06921A9A0592199A04320492189A93
:102480000392179A0292169A0192159A00920022CC
:10249000110010000EF0A6FE002021B030BD189AE9
:1024A000174B009200221100100081E74022010822
:1024B0007D3101088E310108A1310108B7310108D1
:1024C000D1310108F131010806320108203201083A
:1024D000343201084F3201086A320108883201089B
:1024E000AB320108C7320108D4320108E9320108D1
:1024F000FE32010827330108433301087D33010808
:102500006233010810B50400A6B0302200211AA8D9
:102510000FF0B6FD18AB0A9317AB099316AB0893EF
:1025200015AB079314AB069313AB059312AB04934F
:1025300011AB039319AB029310AB01930FAB009354
:10254000200039490EAB0DAA0FF064FC0D2802D013
:10255000022026B010BD1AA800F074FB149B002BBB
:1025600003D0012B01D0022BF2D1FA210D9A1A933C
:1025700089008A4201D22D494A431B920E9A1100CA
:1025800009311F29E4D81C92002B29D128490F9A20
:10259000501828498842DBD827491D92109A5018B4
:1025A00026498842D4D81E92129A012AD0D8209265
:1025B000139A012A00D82192159A511EFE29C7D8D4
:1025C00022925A1E012A28D91B4A169B99181C4A86
:1025D0009142BDD82393189B042BB9D825931EE0B4
:1025E000012B0FD10F9A062AB2D81D92109A511FB3
:1025F0000729ADD81E92119A511F0329A8D8043A71
:102600001F92D1E7FA21109A89008A42CBD99FE71D
:10261000179B022B9CD8249301E0022BF8D11AA817
:1026200000F004FB002094E7CC33010840420F0087
:1026300040EDFFFF780D0700A8FDFFFF8891040023
:10264000E80A030007B50B4901AA0FF0E3FB0128D4
:1026500008D00022084B110010000EF0C3FD022329
:1026600018000EBD019800F005FB00239842F7D03A
:102670000333F5E74A340108F333010807B50B4982
:1026800001AA0FF0C7FB012808D00022084B110057
:1026900010000EF0A7FD022318000EBD019800F0F7
:1026A000B3FB00239842F7D00333F5E74A3401081F
:1026B0001834010837B50378302B1ED00220312B97
:1026C0001AD1022005F068FC002401210D4D2200E2
:1026D0000D4B4942280000940FF028F9FA212800F8
:1026E00049010FF013FA28000FF0D2F9042021005D
:1026F000064A0EF05DFF20003EBD012005F04CFCB7
:10270000DFE7C04698010020411800080D180008B6
:1027100030B595B007AB019306AB00931F4905ABED
:1027200004AA0FF077FB0223042813D1FA21049A9C
:1027300089008A4202D21A4B53430493059A8A4273
:1027400002D2174B534305930025049C079BAB42D1
:1027500003D80023180015B030BD08A800F072FAA5
:1027600008A8099400F062FA0021079A0800029272
:102770000C4B0122019500940EF034FD012000F075
:1027800079FA002807D1069BE418059BA34200D2E2
:10279000049C0135DAE70323DCE7C0464134010835
:1027A00040420F004D34010810B500F055FA0022E8
:1027B000034B110010000EF015FD002010BDC046A7
:1027C0006834010810B500F0ABFCFEF7EBFF002009
:1027D00010BD00000D4B10B51A6801321A60092AAD
:1027E00008D1083A5A6007321A605B69002B00D0A2
:1027F000984710BD9A680078511C9A189960107318
:102800000829F2D100229A60EFE7C046A402002016
:1028100010B5041C0A2800D90A24E4B2054BA20012
:10282000D3580022110010000EF0DCFC0028F5D176
:1028300010BDC046A022010810B5040006480EF0E5
:1028400075FC064B002C00D05C6100229A609A61F6
:102850001A60DA615A6010BDD5270008A402002072
:10286000F7B5874C6368012B0DD10420FFF7D0FF2B
:10287000EFF3108272B6A368A36100232360636044
:1028800082F31088E3612368002B00D1F7BDA369B0
:10289000E218127B012A13D15A1C072B0DD0A2611A
:1028A000EFF3108272B62368013B236082F3108835
:1028B0000620FFF7ADFF0023E4E70023A361EFE765
:1028C0000D2A02D00A2A00D0BCE05A1C072B48D09F
:1028D000A261EFF3108272B62368013B236082F39A
:1028E0001088E269002ACED0002366498B54EFF3AA
:1028F000108C72B61E00CF5C002F35D13D00023B1C
:1029000060480093AE424CD18CF310885D4B1A782E
:10291000412A00D094E05A78542A00D090E09B7865
:10292000002B1CD03F2B43D10022574B110010002D
:102930000EF058FC051EF7D118226A43534B9B1822
:1029400000225B69110010000EF04CFC0028F3D14E
:102950000135252DF0D10EF0DFFB0128FBD1380029
:10296000A7E70023A361B4E73A00083A5042424186
:102970000133B618BFE70132815C0829FBD1002A78
:10298000C2D0013A1118531C0193009B93420AD8FC
:102990000022019B0A70C254009B0135023B009348
:1029A000B0E70022E8E78A780A70019A0131EAE785
:1029B0000025374B354E0193736831681A00019832
:1029C00000930FF065FB002836D1019A009B009917
:1029D0009B18525C3D2A1BD03F2A0DD118235D4322
:1029E0002A4B5D196D6900222B00110010000EF0BA
:1029F000F9FB0028F7D1B2E70127002AAFD118323E
:102A00005543224A180055192A6990470700A6E73E
:102A10005A78581C3F2A09D19B78002B06D11833CD
:102A20005D431A4B5D19AB689847EFE718235D4388
:102A3000164B5D19EB68F7E701351836252DBBD12C
:102A400001278CE7E1691348814205D10023042066
:102A5000E361FFF7DDFE16E7481CE061094801333A
:102A6000A3614254082B01D10023A361EFF310822C
:102A700072B62368013B236082F3108803E7C046E7
:102A8000A4020020C4020020F5340108CC22010871
:102A9000C60200201B0200000022054B9A60DA608B
:102AA0002422FF325A60213AFF3A1A607047C0462A
:102AB000E004002000487047E0040020012010B529
:102AC000024B18600EF0C4FC10BDC046F00400209C
:102AD000012010B503498A808B7188600EF0B8FC24
:102AE00010BDC046F0040020012010B5024BD86094
:102AF0000EF0AEFC10BDC046F0040020012010B561
:102B0000024B18610EF0A4FC10BDC046F00400207A
:102B1000012010B5024B58610EF09AFC10BDC04662
:102B2000F004002070B50D4901220B7E1C001440FA
:102B3000134210D113430B7620002100084B0EF0F6
:102B400051FB0821074B084A5868D56B5956074A6C
:102B5000A847200070BD01204042FBE7F0040020A0
:102B60007A4301084C000020942D0108FFFF00006B
:102B7000F0B5264F02233A7E8BB014001C401A4257
:102B800041D113432100012220003B76204B0EF05F
:102B900029FB204E204D7068EB689847012309936C
:102BA00005931D330293163B01931C4B1C4A009363
:102BB000AB6920009C460894230007940694049473
:102BC000039411006446A047B369002B19D16B6BC5
:102BD00014489847EB6D984700F042FF2B6C00209B
:102BE000984700210122104B009008000EF0FAFADD
:102BF000EB6A9847022200203B7E93433B760BB062
:102C0000F0BD6B6EE4E701204042F8E7F0040020DD
:102C1000884301084C000020942D010885450100DF
:102C200050C30000FFFFFF009643010810B5044B9E
:102C30000100180030220EF0EBFB002010BDC04652
:102C40004C00002010B5302202490EF0E1FB0020BC
:102C500010BDC0464C00002010B50024034B1C766C
:102C6000034BDB6A9847200010BDC046F0040020EB
:102C7000942D0108F0B5554C0423227E8DB015002B
:102C80000B901D401A4200D09DE013432900012201
:102C9000237628004E4B0EF0A5FA20004D4B1C3039
:102CA000E3614D4B072763624C4B23624C4BA3629D
:102CB0004C4BE3624C4B1B6898474C4B4C4C1E6A88
:102CC00029002000F2B20EF0ACFB290002220125FF
:102CD000F0B2C3000A930A9B99420DD101230A93D3
:102CE0000A9A0B9B9A4219DD04210020374A137E71
:102CF0008B4313760DB0F0BD08001609130A73401C
:102D000052002B401343DA0538402B408340CE104D
:102D1000A05DD20D0343A3550131DCE700210B9ADE
:102D2000080001920A9A334B009201220EF05AFADF
:102D30002E4D2D4E6868F368984708212E4AEB689F
:102D40006956002408920822079406940594049476
:102D5000039402926A690120D2B201922A69043B6B
:102D60000092F26917002200B847296AB36AC9B213
:102D70001F48984701200EF001FCF36A9847134D55
:102D80002A68012A04D1210020001C4B0EF02AFAE7
:102D9000EA68012A04D10021194B08000EF022FA3A
:102DA0006A69012A04D10021164B08000EF01AFAB4
:102DB000FA20400000F054FE00232B60EB606B61B2
:102DC0000A9B01338BE70120404293E7F004002087
:102DD000AF430108BD2A0008D12A0008E92A0008EB
:102DE000FD2A0008112B0008942D01084C0000203A
:102DF00028050020BE430108B80B0000CC430108A1
:102E0000D7430108E5430108F0B591B00F905B4846
:102E10000823027E14001C401A4200D0ABE00F9938
:102E2000002900DCA7E013430376554B1C300360F8
:102E3000544B8360544B4360544BC360544B036109
:102E4000544B1B68984701231F000B940E940C935E
:102E5000514D504B68680D93DB6898471E22002443
:102E60006B69E9680292163A01920D9A0997926984
:102E700008940794069405940494039400940439E8
:102E8000160001202A69DBB2B0470D9B43485B6BFB
:102E9000984701200EF072FB0D9BDB6A9847374B79
:102EA0009A68012A15D19E889B793A005BB20D93EE
:102EB000210020003A4B0EF095F9286836B2A04266
:102EC00051D10D9A010001923A00364B00960EF056
:102ED00089F92A4D2B69012B05D100213A00080000
:102EE000314B0EF07FF96B69012B05D100213A00BF
:102EF00008002E4B0EF076F92B69012B02D06B697E
:102F0000012B02D10B9B01330B93AB686420013B77
:102F10005A42534100240E9AAC60D3180E930B9B77
:102F20000B9A58430E9B2C6199186C61FDF71CF9A4
:102F30000F9B1F4E01930C9B3A00029000932100BF
:102F4000330020000EF04EF90C9B01330C930C9AC9
:102F50000F9B934200DB7BE7082220002B7E9343EC
:102F60002B7611B0F0BD0D9A2100019220003A009D
:102F7000104B0096ABE701204042F2E7F00400203E
:102F8000BD2A0008D12A0008E92A0008FD2A000805
:102F9000112B0008942D01084C000020881300001C
:102FA000F1430108FC4301083C440108E5430108E2
:102FB0004A4401081A4401080721012210B5134CA4
:102FC0000023A163124962632261033221606261BE
:102FD0008021220009062C3220002384E363A362AF
:102FE0006160A360E360A361E361137001F0CEFA56
:102FF000002801D000F042F90021200001F0F4FC8B
:10300000002801D000F03AF910BDC0462806002083
:1030100000240140054B02689A4205D18023044AEE
:103020009B00516B0B4353637047C0460024014023
:1030300000100240084B02689A420CD18022074BD4
:103040009200596A0A435A625A6A05490A405A620A
:103050005A6B0A405A637047002401400010024036
:10306000FFFDFFFF73B508220021060068460FF040
:1030700007F8FFF7A1FF08231F494A681A42FCD04E
:1030800080231E4D1E4C6A6B9B00134300216B6313
:10309000200001F0A9FC1B4B694600931A4B20004D
:1030A000019301F04DFC802369465B0120000096EE
:1030B000019301F045FC002801D000F0DFF820006A
:1030C00001F090FB002801D000F0D8F80121200089
:1030D000494201F0D1FB200001F0B0FB200001F0DB
:1030E0002BFC0600200001F029FB6B6B074A300027
:1030F00013406B6376BDC046007000400010024074
:1031000028060020FFFF070001100000FFFDFFFF61
:10311000014B024A1A607047280600200024014033
:1031200010B50748FFF79EFF01000020814206D03E
:10313000044B05481B885843FDF716F880B210BDB4
:10314000000002447800F81FB80B000037B5FFF705
:10315000E7FF05000F48FFF785FF0F4B68430F4956
:103160001C88FDF701F8031B502058430C4B00024C
:103170001988091BFDF782F8F0235B01C01804B21F
:1031800022120092012200211000064B0EF02AF8B4
:1031900020003EBD000004487A00F81FB80B000074
:1031A0007E00F81F6844010807B50121084B0B2079
:1031B0001A6B0A431A6300221B6B0B400193110028
:1031C000019B01F061FC0B2001F088FC07BDC046AB
:1031D0000010024010B594B02C22002107A80EF078
:1031E0004FFF1422002101A80EF04AFF022306938C
:1031F000109380231B0312938023012210241B04AD
:1032000006A809920A94139302F018F8002801D036
:1032100072B6FEE78023114A5B05916B0B43936303
:103220000F4A104B1168194080231B010B43136098
:1032300051680B0023402142FAD10F220121019253
:1032400001A80C3A029203930493059302F080FACA
:10325000002801D072B6FEE714B010BD0010024085
:1032600000700040FFE7FFFF10B501F099F8FFF78D
:10327000B1FFFEF743F9FEF747F9FCE772B6FEE748
:1032800030B5002591B01422002101A80EF0F8FEFF
:103290002822290006A800950EF0F2FE244C254BAA
:1032A000200023601F23A360234B6560E36025613A
:1032B0006561A561E56102F0DDFCA84201D0FFF780
:1032C000DDFF6B46002220009D8001A99D710495C1
:1032D000059502F037FD002801D0FFF7CFFF174B0F
:1032E000002269462000009302F0B0FD002801D0C2
:1032F000FFF7C4FF00226B461A839A76A0231B05B2
:103300000C9319231E216B44D977802320005B0086
:1033100006A9079209920A920B920D920F9302F05E
:1033200003FE002801D0FFF7A9FF11B030BDC04651
:103330008406002000280040FF0300000101010076
:1033400010B504008EB03822002168460EF098FEB9
:103350000F4B22689A4218D1042368460093FC332D
:10336000029301F06BFF002801D0FFF787FF802355
:10337000084ADB02116D02200B4313650022110085
:1033800001F082FB022001F0A9FB0EB010BDC04687
:103390000028004000100240014B18687047C046EA
:1033A000A80600200320704710B5410E7D2200239F
:1033B000C001FDF78DF810BD10B57D22002300215E
:1033C000FDF7A6F84906C009084310BD0648074B9B
:1033D000016810B5CA68D2B21343CB60802149009E
:1033E00002F080FB002010BD840600207FFEFFFF5E
:1033F000F7B5254E0500002230000C0002F076FEE5
:10340000224F0022BB6A29003000019302F098FE8F
:1034100000222100300002F069FEBB6A019A53408D
:103420009BB2002BECD10321EA7819486E78504307
:103430000A4053425A415342164A013E1340164A2B
:10344000AD789B183D2272437600F3400132D70FCE
:103450000330BA18013D8008281852101218E120D4
:103460000B40D31A0D4A0001534322786178504330
:103470003C224A438018A2788018C01863688002F2
:10348000C01A074BC018FEBD84060020002800406B
:10349000B5050000B0AAAAFFA0AA990080510100BA
:1034A000FF03000010B5044C2000211D1830FFF769
:1034B0009FFF206010BDC046A80600207FB568466B
:1034C00001A9FFF795FF024B1B68C01A07B000BDAA
:1034D000A8060020F0B587B00600FFF7EFFF002137
:1034E000301A032800D8012102200DF033FF0DF01F
:1034F0005DFF404C2379A768009363790193A3791A
:103500000293E3790393637E0493E37EA57E0593A0
:10351000FFF75CFF384B3949DF1BB3059B0DFF18E4
:10352000BAB2B30AA8B28B4244D869460E88E121E8
:1035300009018B4243D269468F883B2B44D8950AB8
:10354000A902521A92B20092029AAD18ED18ADB2C9
:103550003B2D3DD83B2F40D8172E43D8049A0599D0
:10356000274B013A890742D1995C884202D9FCF77E
:103570006BFF88B2009A204BA5779B1A2362A02389
:103580001B05636323003C331870039B0025E3771E
:10359000210080232A005B001C311A4867772677B8
:1035A000A56325632364A562E56202F0BDFC2800E3
:1035B00007B0F0BD144D01305B1980B2B3E7134D75
:1035C00001365B19B6B2B4E701373C3BBFB2B4E792
:1035D0003C3D0137ADB2BFB2BAE73C3F0136BFB2A6
:1035E000B6B2B7E7183E0130B6B280B2B4E79B1866
:1035F000197BBAE7A8060020FF0300007F510100F5
:10360000442601088406002080AEFEFFF0F1FFFF93
:1036100030B587B0050001A96846FFF7E9FE040050
:1036200080057D2200230021800DFCF771FFC00979
:103630002880A00A07B030BD10B5034B020000215E
:10364000180002F09FFD10BD8406002010B5034B4A
:1036500002000121180002F095FD10BD8406002033
:1036600010B50021014802F093FD10BD8406002032
:1036700010B50121014802F08BFD10BD8406002029
:1036800030B5114C8BB044342378002B19D1203342
:103690000193802301A85B02029302F047F90028FE
:1036A00000D0FEE7FFF7ECFD8021084D490028001F
:1036B00002F018FA280002F071FDFFF7F3FE012373
:1036C000237000200BB030BDA80600208406002027
:1036D0007FB50020054B44331B78834203D06846F6
:1036E00001A9FFF785FE07B000BDC046A80600206F
:1036F00070B57D220023410EC001FCF7E9FE0400F5
:10370000FFF7E6FF0500FFF7E3FF401BA04200D3F1
:1037100070BDC046F7E710B50EF014FA10BD704743
:1037200010B5EFF3108472B600F00EFD0748FFF7F6
:1037300081FC0423064A11680B43136084F310884C
:103740000121080001F0E2FC10BDC046280600205F
:103750000070004010B5EFF3108472B60122104BD8
:1037600019680A431A60042219681142FCD08022A9
:10377000196852040A431A6080229204196811429F
:10378000FCD00322D9680A430C21DA60DA680A40C7
:103790000C2AFBD100F0FEFB84F3108810BDC0465C
:1037A0000010024010B50121002001F077FC10BD8F
:1037B000704770478023094A5B05916B10B50B4336
:1037C000936301F063FC01F0E7FC0823044A1168ED
:1037D0000B43136001F0D6FC10BDC0460010024040
:1037E00000200240FEE7FEE77047704710B500F08A
:1037F000EBFD10BD10B5034801F0DEFA024801F000
:10380000DBFA10BD300800202808002070470000B7
:1038100010B5034801F0D0FA024801F0CDFA10BD0E
:10382000200800203808002010B5024801F06BFA8B
:1038300010BDC046F006002010B5024802F0E2FFBD
:1038400010BDC0463807002010B5024802F0ACF9A0
:1038500010BDC046840600200CB407B5102105AB8E
:10386000034A01930EF0E2FA03B008BC02B0184715
:10387000734401087FB5040002AE30000D000DF066
:103880002FFF0421735E20001021054A0093029B44
:10389000FFF7E2FF2000FCF737FC28807FBDC04621
:1038A00073440108F0B50125022604278BB00EF001
:1038B00031F80C22002107A80EF0E2FB80222D4CEB
:1038C000A020E36A05A92B43E362E36AC0052B400D
:1038D0000193019BE36A3343E362E36A334002935B
:1038E000029BE36A3B43E362E36A3B400393039B2F
:1038F000E36A1343E362E36A13400493049B0323E4
:1039000006931D4B059301F069FA1C4B05A91C4851
:10391000059301F063FA05A91A4801F05FFA05A9B9
:10392000194801F05BFA8022E36AAB43E362E36A81
:10393000B343E362E36ABB43E362E36A9343E36254
:1039400000F0AAF800F0CAF80DF0CCFB0F480DF01B
:10395000F5FB30000DF0F8FBFFF7DAFB00F0CAFCD6
:1039600000F018FB0DF0EEFC290028000DF008FD1A
:103970000BB0F0BD00100240FF9F0000FFFF0000F1
:103980000004005000080050001C0050753800086A
:1039900010B50DF01DFD10BD13B5FFF7C1FB0D4BAC
:1039A000FE2498420DD8E1230024DB00984208D37E
:1039B000094B9621C018FE23C9005843FCF7D4FBDD
:1039C000C4B201220021054B009402200DF00AFC34
:1039D000200016BDB80B0000F8F8FFFF7C4401087A
:1039E00010B5FFF7B3FB0200C017C0B28018001279
:1039F00080B210BD70B5040000F0F2FC050000F0CC
:103A0000FBFC2D1800F0F2FC2B0EE3712B0CA371C4
:103A10002B0A6371030EE370030CA370030A257174
:103A20006370207070BD10B500F0DAFC040000F087
:103A3000DDFC444000F0E0FC604010BD10B5012109
:103A400004200DF087FC10BD10B5002104200DF0FE
:103A500081FC10BD0020704710B5FFF739FE10BD86
:103A600007B501900198FFF743FE07BD802310B50D
:103A7000074CDB03626B1343636300F0C3FC00F08D
:103A8000C9FC00F0CFFC636B024A1340636310BDB6
:103A900000100240FFFFBFFF10B586B00C220021CE
:103AA00003A80EF0EDFA03230293C0230124A02003
:103AB000DB010193084B01A9DA6AC0052243DA62EF
:103AC000DB6A23400093009B01F088F92000FFF798
:103AD000CDFF06B010BDC046001002407047000088
:103AE0000A480B4B10B5036096239B010C224360E0
:103AF000002342618360C3600361836103F018FAAD
:103B0000002801D0FFF7BAFB10BDC04638070020DF
:103B100000480040F0B5050091B01422002102A831
:103B20000EF0AEFA2422002107A80EF0A9FA2D4BC0
:103B30002A689A4253D104230793802307A81B01C4
:103B40000B9301F0F3FE002801D0FFF797FB8022D2
:103B5000254BD202996BA0200A4301219A63DA6AAD
:103B600000240A43DA62DB6A02270B400193019BBF
:103B700008230326029302A9023BC005059606937B
:103B80000397049401F02AF90423A0200293C005AE
:103B9000DB1902A9059606930397049401F01EF918
:103BA000124E134B30003360052373600B33B36048
:103BB0007033F46033617461B461F461346200F0B5
:103BC000A9FFA04201D0FFF759FB00221D201100E0
:103BD000EE66B56200F058FF1D2000F07FFF11B0C7
:103BE000F0BDC0460048004000100240F006002032
:103BF000800002400B4B026810B504009A420FD1BE
:103C0000A020094A0949936BC0050B4093630C211E
:103C100001F0A8F9E06E00F0C1FF1D2000F06AFF7E
:103C200010BDC0460048004000100240FFFFFBFFEF
:103C300010B5044B1860FFF7B7FAFFF751FF0020EB
:103C400010BDC046BC0700208022094BD202996AF1
:103C500010B50A439A629A6A064907480A409A626E
:103C6000FFF7C8FF0B2000F045FF002010BDC04645
:103C700000100240FFFFFBFF3807002010B5044B87
:103C80000A000100180002F013FD002010BDC0461C
:103C90003807002037B58021104C114D019A68601B
:103CA00089032000009103F0F9F980222368520271
:103CB000D9691142FCD18022D203D9691142FCD0CA
:103CC000996820000A439A6003F02EFA2900012225
:103CD0002000083103F0ACF900203EBD3807002079
:103CE000BC07002010B5024B00201B68984710BD90
:103CF000BC07002070B50A4C05006368002B07D094
:103D0000021DD26F002A03D12000012108309847FC
:103D1000210028000122083103F08AF970BDC04655
:103D2000BC0700200D4885460D480E490E4A002369
:103D300002E0D458C4500433C4188C42F9D30B4A5F
:103D40000B4C002301E013600432A242FBD300F0CD
:103D5000F9FA0EF0AFF9FFF787FAFEE700500020FE
:103D600000000020340100206C47010834010020CD
:103D7000BC1E0020FEE70000FA2337B505009B00BB
:103D800014000093064813000A00290002F020FBEB
:103D9000002801D120003EBD06204042FBE7C0467E
:103DA000C8070020144B70B50360822300255B0018
:103DB0004360FC3383618560C56005614561040033
:103DC00001F0A4FD2B000D4A0D4990420DD80023AF
:103DD00023626362A3620733E561E362200002F0BD
:103DE0008FFA431E9841C0B270BD9D0001336D58DB
:103DF000082BECD04008E8E700300140809698009E
:103E0000C426010830B51B4D1B4B280087B02B6022
:103E100002F030FC041E02D0002007B030BD802329
:103E2000164A5B01516B0B435363022303900590C9
:103E3000A02002930133049301A97D33C0050193AF
:103E400000F0CCFFA020402301A9C00501930594F8
:103E500000F0C4FF08230A4801A90594019300F06B
:103E6000BDFF2800FFF79EFF0028D5D00820404264
:103E7000D3E7C046C80700200030014000100240D0
:103E80000004005000B58BB003280CD81B4BDA6A35
:103E9000FCF74CF9021B232B02210A43DA62DB6A8E
:103EA0000B400193019B164B4200D35A80000593AF
:103EB000012306930023079303330893114B05A9AD
:103EC000C05800F08BFF0BB000BD01210A43DA623D
:103ED000DB6A0B400293029BE5E702210A43DA62A8
:103EE000DB6A0B400393039BDDE702210A43DA629E
:103EF000DB6A0B400493049BD5E7C04600100240E8
:103F0000E42601087C000020054B10B54200D15A80
:103F1000044B80000122C05801F0AAF810BDC04631
:103F2000E42601087C000020054B10B54200D15A60
:103F3000044B80000022C05801F09AF810BDC04622
:103F4000E42601087C000020044B10B54200D15A41
:103F5000034B8000C05801F091F810BDE426010821
:103F60007C00002005207047020010B5012809D10F
:103F70008021A0204901C00501F07AF80520FFF753
:103F80006FFD10BD8021A02000224901C00501F075
:103F90006FF8F6E70023F0B50227042297B0654CCE
:103FA0001093E36A03213B43E362E36A01253B404C
:103FB0000193019BE36A604E3B43E362E36A0CA812
:103FC0003B400293029BE36A3B43E362E36A3B406C
:103FD0000393039BE36A1343E362E36A0F91134085
:103FE0000493049B1023010054480D960C930E97E4
:103FF00000F0F4FE524B0CA8010050480D930C97B2
:1040000000F0ECFE0CA801004C480D960C9500F059
:10401000E5FE80230CA801009B014A480D960C93F5
:1040200000F0DCFEE36AA0263B43E362E36A03217F
:104030003B400993099BE36AF6052B43E362E36A7D
:1040400011A82B400A930A9BE36A2B43E362E36ABD
:1040500014912B400B930B9B002301001593300010
:10406000803311931297139700F0B8FE002311A824
:104070000100159330004033119300F0AFFE002390
:1040800011A8010015932D480833119300F0A6FEE6
:10409000802000020C900D950E95E36A0CA82B432E
:1040A000E362E36A01002B4030000593059B00F0BA
:1040B00095FE80212A003000090200F0D9FF042279
:1040C000E36A03212B43E362E36A30002B4006934B
:1040D000069BE36A2B43E362E36A2B400793079B4B
:1040E000E36A1343E362E36A13400893089BE36ABD
:1040F0001343E362E36A140013401193119B0023FE
:104100000E9380230F915B010CA90C930D9500F089
:1041100065FE30000CA90C9700F060FE0CA9094860
:104120000C9700F05BFE07480CA90C9400F056FEBB
:1041300017B0F0BD00100240000011100004005044
:104140000000311000080050F0B508268BB0320096
:10415000002103A80DF094FF02251023224C234FC9
:104160006946200002950197009300F037FE204B2E
:10417000694620000193009500F030FE0123694656
:1041800020000197009300F029FE802369469B01DF
:1041900018480197009300F021FE0795A025012300
:1041A0008027ED05280005A90693059700F016FE67
:1041B0004023280005A9059300F010FE200005A962
:1041C000059600F00BFE39002800002200F050FF99
:1041D00028000022402100F04BFF00223100200087
:1041E00000F046FF0BB0F0BD0004005000001110BD
:1041F0000000311000080050F7B50090EFF3108375
:10420000019372B60024114E114DE300F618A70079
:104210007959300000F0C9FD009B0021DA593000C7
:1042200000F0BCFD2B001033E656143500223000A0
:10423000795900F029FC0134300000F04FFC042CC7
:10424000E1D1019B83F31088F7BDC0462008002010
:10425000F026010800207047013810B5032811D856
:10426000FBF764FF02090D08A02001220221C0050E
:1042700000F0FEFE10BD012204210948F8E70122EA
:104280000221FAE7A02000220221C00500F0F0FE82
:1042900000220421024800F0EBFE0022F0E7C046B5
:1042A000000800500120704730B587B00C22002173
:1042B00003A80DF0E5FE012403230D4D01A92800FC
:1042C00004930294019400F089FD0022210028004B
:1042D00000F0CEFE2000FFF7C3FB0023280001A959
:1042E000029300F07BFD0620FFF7BAFB07B030BD5C
:1042F0000008005010B5FFF785FD10BD1FB50E2456
:104300006B466C44D8800633012221001800FFF769
:1043100033FD208804B010BD020010B5002806D17E
:104320008021A0200902C00500F0A2FE10BD0122DC
:10433000F6E7000010B50221014800F093FE10BD21
:10434000000400508022104B520019680A431A6082
:10435000DA680E490A40DA601A680D490A400121FC
:104360001A609A688A439A601A680A490A401A6071
:10437000DA6809490A40DA6000221A618022074B94
:1043800012059A607047C046001002400C40FF883A
:10439000F6FFF6FEFFFFFBFFFFFF02FF00ED00E070
:1043A0000223084A10B5116803200B431360FFF77E
:1043B00051FB041E03D1FFF7FDF9200010BD0124BD
:1043C000FBE7C04600200240034A044B11681B78FB
:1043D0005B1813607047C04640080020940000201E
:1043E000014B18687047C0465000F81F014B186811
:1043F0007047C0465400F81F014B18687047C0460C
:104400006400F81F0121024A53688B4353607047D0
:10441000005801400221024A53688B4353607047A1
:10442000005801400421024A53688B43536070478F
:1044300000580140084B13B5040008491868FBF701
:1044400093FE44430194019B002B00D113BD019BBB
:10445000013B0193F7E7C0469000002040420F0067
:104460000321036870B5040098680840012801D052
:10447000002070BD1A680242FAD005229D681540DE
:10448000012D19D19868033A02439A601960FFF729
:10449000E3FA060023689B682B42E9D0FFF7DCFAB9
:1044A000801B0A28F6D91023626D0120134363652F
:1044B000A36D2B43A365DCE71023626D1343636593
:1044C000A36D0343A365D4E70321036870B59A681D
:1044D00004000A40012A04D11968114201D00020C9
:1044E00070BD9968134A114208D010230120626DF3
:1044F00013436365A36D0343A365F1E701259A6840
:1045000028002A439A60FFF795FFFFF7A5FA0600F7
:1045100023681B682B42E2D1FFF79EFA801B0A2812
:10452000F6D91023626D012013436365A36D2B43FD
:10453000A365D5E7170000800422036870B5996869
:104540000400114201D1002070BD9968114206D0CB
:104550009A68920703D4102299680A439A60FFF779
:104560007BFA0426050023689B683342EBD0FFF7F3
:1045700073FA401B0A28F6D910230120626D1343F9
:104580006365A36D0343A365DEE7000070B5040017
:104590000120002C18D0636D002B06D12200503270
:1045A000A36520001370FEF735FD636DDB0603D4B1
:1045B00023689A68520708D51023626D01201343BF
:1045C000636500235034237070BD616D554A1140FE
:1045D0000632FF320A436265032299681140524A4B
:1045E000012902D11868084219D180256168ED05BA
:1045F00048004008A84203D080200006814276D1BE
:104600001869800080081861186901431961182031
:10461000D9688143D960D968A0680143D96011681D
:10462000424801401160616B106849060143116006
:10463000802299685205114202D199680A439A6012
:10464000DA683B49256B0A40DA60621CD17FE26878
:10465000D8682A430243A06980030243E069C0038B
:1046600002434803024320002C30007840000243FC
:10467000206902384542684180000243C220DA6066
:10468000626AFF30824204D0A56AD8682A43024396
:10469000DA60A21CD27F012A06D1002933D1802200
:1046A000D96852020A43DA60E16B1A69012932D1F2
:1046B0002048656C02401A61226C18692A43A56C77
:1046C0002A4302431A611A691143196107215A6981
:1046D00000208A435A615A69A16B0A435A61032335
:1046E000A065626D9A43023B134363656CE71869EA
:1046F000114D800080081861106828401060106813
:104700000143116083E72021606D01436165A16D64
:104710000A43A265C8E701210A42D7D01A698A4331
:104720001A61D3E7FDFEFFFF08270140FFFFFFFDF1
:104730001902FEFF03FCFFFFFFFFC3FF70B504007B
:104740000125002811D00223426D13434365FFF772
:10475000F3FE051E37D12000FFF782FE0500012879
:1047600005D10125002350342370280070BD01239A
:104770006365236815495A6820000A405A60144A44
:1047800014491A609A680A409A60DA6812490A4025
:10479000DA601A6911490A4007211A615A698A4385
:1047A0005A611A6A0E490A407F211A62B4331A68A4
:1047B0008A431A601A688A431A60FEF73BFC00239A
:1047C000A3656365CEE70128CBD0D2E760F7FFFF92
:1047D0009F080000FFFFFFEF00023E8302FCFF3F47
:1047E00000F000F0036870B59B68040002205B07CE
:1047F0001AD4250050352B78012B15D001232B70AE
:10480000E369012B11D1626D0B4B00201A4080230C
:104810005B0013431C226365A065287023681A603F
:104820009968183A0A439A6070BD2000FFF74CFE61
:104830000028E8D0F8E7C046FEF0FFFF70B506009C
:104840005036337804000220012B12D001252000BD
:104850003570FFF771FE002809D12000FFF700FE38
:10486000002804D1636D034A13401D43656500238E
:10487000337070BDFEFEFFFFF8B5466904000D0001
:10488000082E0DD003680120DB680C26034207D0F8
:104890002023626D50341343636000232370F8BDFE
:1048A000FFF7DAF8070023681A68164225D080223D
:1048B000616D92000A436265C022D96812011142FB
:1048C00014D1621CD27F002A10D11A6812070DD5AC
:1048D0009A68520724D40C215A688A435A60616D41
:1048E000144A11400432FF320A4362650020A26973
:1048F0008242D4D10C221A60D1E76A1CD4D0002D98
:1049000008D10423626D50341343636000230320F5
:104910002370C4E7FFF7A0F8C01BA842C3D9F0E793
:104920002022616D0A4362650122A16D0A43A265DE
:10493000DCE7C046FEFEFFFF0368186C704700000E
:10494000F8B504005034227803000220012A0BD06D
:10495000013820701A6895686D0706D52022596DB8
:104960000A435A6500232370F8BD802380260D6812
:10497000194F49686803DB02400B2B40B602B9426D
:1049800018D0916A01439162002B08D08023134A0A
:104990001B0411680A200B431360FFF74BFD3542DF
:1049A00005D080230D4ADB0311680B431360002000
:1049B0002070D9E7916A81439162002B04D0074AA5
:1049C000074913680B4013603542F0D0034A05498C
:1049D00013680B40EAE7C0460110000008270140B9
:1049E000FFFF7FFFFFFFBFFFF8B5050050352B78B5
:1049F00004000220012B43D0012303222B702368E3
:104A000098681040012809D11A68024206D0202374
:104A1000626D1343636500232B7031E0616D194AA9
:104A200011400632FF320A4303216265DE68DA680C
:104A30008A43DA608022996812060A439A60FFF777
:104A40000BF8070023689A68002A0BDB0321DA6859
:104A50000E401643DE600123626D00208A4313433B
:104A60006365D8E7FEF7F8FFC01B0A28EAD91223CE
:104A7000626D01209A43023B1343636500232B7050
:104A8000F8BDC046FDFEFFFF30B5FF2503242A0018
:104A90000440E400A24089012940D243A140C3B2AE
:104AA00000280ADBC0240B4B80088000C018A4003B
:104AB000035913400B43035130BD0F200340083B03
:104AC00005489B089B001B18D86902400A43DA611D
:104AD000F2E7C04600E100E000ED00E0002805DB61
:104AE0001F2318401E3B8340014A13607047C04695
:104AF00000E100E0002809DB1F2318401E3B834033
:104B0000034AD367BFF34F8FBFF36F8F7047C04621
:104B100004E100E0F8B504000120002C35D0256840
:104B20001A4B1421E818FBF71FFB194B8000236474
:104B30000223A21D6064D3772E68164BA1681E4025
:104B4000E36827690B433B4367693B43A7693B43E2
:104B5000E7693B43276A3B4333432B608023DB01F8
:104B600099420CD01C2528400D3D85400A490B6810
:104B7000AB430B6063680D6883402B430B600020E0
:104B80000123E0630534D377E077F8BDF8FFFDBF7C
:104B9000000002400F80FFFFA800024070B5012511
:104BA00004002800002C21D0266814213368AB4370
:104BB00033600F4BF018FBF7D7FA1C2183006364B6
:104BC0000B4000209D400D3999400A4AA31D2264E4
:104BD00030605560084D2A688A432A60E06220638D
:104BE0006063A063E0630534D877E07770BDC046AA
:104BF000F8FFFDBF00000240A8000240F7B5451DC8
:104C00000193EB7F04000220012B29D00123A71D73
:104C1000EB77FB7F00269C466046DBB201282AD159
:104C20000130F8771C272068E6630568266C9D43F1
:104C30000560656C3D40AB407360019B4360A368B9
:104C4000102B0ED18260C160236B002B0CD00E2381
:104C500002681343036001230268134303600020CA
:104C6000FEBD8160C260EFE70422036893430360E6
:104C700002680A23EDE70220EE77F1E730B5841DE4
:104C8000E27F0300022A06D00422C2630120002230
:104C90000533DA7730BD02680E2011681C25814388
:104CA000116001211068884310605A6C186C2A400A
:104CB0000D00954045600020E177E8E770B5841D60
:104CC000E37F022B04D00423C363033B180070BDB1
:104CD0000E2103681C251A688A431A60012219688C
:104CE00091431960436C016C2B4015009D404D6051
:104CF000E2770024431DDC77826B1300A242E5D0EB
:104D000090472300E2E7F8B51C260427426C016CAB
:104D100032403E0096400D6803681C6835420DD055
:104D20003C420BD01A68920602D41A68BA431A6041
:104D3000036B4E60002B19D0984717E002273E0006
:104D40009640354213D03C4211D01A68920606D4E0
:104D50000A241A68A2431A600122831DDA7700220E
:104D6000431D4E60DA77C36A9342E5D1F8BD082649
:104D7000370097403D42F9D03442F7D00E251C68E9
:104D8000AC431C6001231C009440821D4C60C36333
:104D9000D3770022431DDA77436BE5E70300081E53
:104DA00001D15A6070470120FCE703000120002B6D
:104DB00001D00020196070471F23026810B51A4007
:104DC0001E3B9340044A51690B4204D0536143682F
:104DD000002B00D0984710BD00040140594AF0B59F
:104DE0008218541EA241002387B005320291059219
:104DF000029A14682200DA4001D107B0F0BD012206
:104E000025009A4015400195144200D198E002997E
:104E100010254C685F002600AE430D3DBD40E943C0
:104E2000751EB4460391012D0DD8866803990E4076
:104E30000299CD68BD403543856045689543220998
:104E40009A402A434260C568039A1540029A9268C4
:104E5000BA402A43C2606246022A10D107250F21B8
:104E60001D40AD00A940DA0892008218166A8E43F0
:104E7000B44602990E696146AE400E43166205685B
:104E8000039A03262A40150022003240BA402A43E2
:104E90000260E20054D501272B4D6A6B3A436A63E6
:104EA0002A4A9D08AD00AD18AA6894461A003240FF
:104EB000920003920F2203998A4061469143A022F7
:104EC000D205944604910022604511D0204A9446B0
:104ED0003A0060450CD01F4F9218B84208D01E4FC0
:104EE0003200B84204D01D4E0132B04200D0059AC3
:104EF00003998A4004990A430199AA600E00184A4E
:104F0000CD4317683E43E10301D43E002E401660B6
:104F10005768019E3E43A10301D43E002E405660D7
:104F20009768019E3E43E10201D43E002E40966008
:104F3000D668019F3743A40201D42E403700D760C2
:104F4000013355E700E4FFAF0010024000000140CC
:104F50000004005000080050000C005000100050E9
:104F600000040140F0B5384A87B082180291511E02
:104F70008A41002305320592029ADA4001D107B036
:104F8000F0BD01273A009A40029C01921440019919
:104F9000029A0A4256D02D4A9908890089188A68CF
:104FA0001D00160003221540AD000C32AA400392EA
:104FB00032400492A022D20594460022604511D0CE
:104FC000234A94463A0060450CD0224F9218B842CA
:104FD00008D0214F0132B84204D0204E0132B042F5
:104FE00000D0059AAA40049DAA4210D11C4A156817
:104FF000A54315605568A54355609568A543956020
:10500000D568A543D5608A68039CA2438A600321C2
:105010005C00A14007240F261C40A400A6400268A3
:10502000019C0A430260DA0892008218156AB543AF
:105030001562C2688A43C2604268A24342608268C5
:105040008A438260013397E700E4FFAF000001402C
:105050000004005000080050000C005000100050E8
:105060000004014000690840431E9841C0B27047E7
:10507000002A01D0816170478162FCE74269130018
:105080000B401B0491430B43836170471021024A7C
:1050900013688B431360704700700040174BF0B5E6
:1050A0001E680500802034000127154A8000126A1E
:1050B00004403A40064205D0002A03D01868114E39
:1050C0003040186003261868B04328430E4D18601E
:1050D00028690136B043286101290BD130BF002C6B
:1050E00006D0002A04D08022196892000A431A6070
:1050F000C046F0BD40BF20BF20BFF0E700700040B9
:1051000000000140FFFDFFFF00ED00E0194BF0B58E
:105110001E680500802034000127174A8000126AAB
:1051200004403A40064205D0002A03D01868134EC6
:105130003040186003261868B043284304251860DF
:105140000F4806693543056101290ED130BF04259A
:105150000169A9430161002C06D0002A04D08022F5
:10516000196892000A431A60F0BD40BF20BF20BFFB
:10517000EDE7C0460070004000000140FFFDFFFF6A
:1051800000ED00E08023034ADB0011680B4313604D
:105190007047C046007000408023034A9B0011689E
:1051A0000B4313607047C046007000400C221D4B3B
:1051B00070B5DC682240082A31D00C2A09D0042AB4
:1051C00025D11868184BC006C0171840174BC018D7
:1051D00070BDA2021648120F805C80222402D9689A
:1051E000A40F52020134114209D0124A00230021B7
:1051F000FBF78EF922000023FBF76AF9E8E71A684B
:1052000010231A4201D00C4AF0E7084AEEE780204A
:105210005B6800021B045B0F01339840D8E7054828
:10522000D6E7C0460010024000E548FF0024F40025
:105230001427010800127A0000093D00F0B50500AE
:1052400085B0002859D00C23B84C0268E668E7689E
:105250001E4080235B0219001F40D20741D42B68F7
:105260009B0700D58AE02B68DB0628D5002E00D0EE
:10527000E3E023689B0502D5EB69002B3DD0802736
:105280006268AB496B6A0A401A435B0B01333F0209
:105290009F40626061682A6A0902090A12060A438D
:1052A0006260E168A3480B061B0FC35CA24ADF40A3
:1052B000A24B17601868FEF7CDFB002834D12B688D
:1052C0001B0700D5F0E02B685B0700D512E12B68C7
:1052D0009B0600D597E1AB6A002B00D0C6E1002009
:1052E00022E0082E03D00C2E09D1002F07D023680E
:1052F0009B03B4D56B68002BB1D1012014E06A6820
:105300008A4213D1226813432360FEF7A5FB009065
:105310008022236892021342A1D1FEF79DFB009BDD
:10532000C01A6428F4D9032005B0F0BDA021C90239
:105330008A4205D180222168D2020A432260E1E735
:1053400021687F480140216021680B400393039B43
:105350007C4923680B402360002AD6D1FEF77CFBF2
:105360000090802223689202134200D177E7FEF773
:1053700073FB009BC01A6428F3D9D4E72022EB68A2
:10538000134203D02168934311432160042E03D0BC
:105390000C2E24D1002F22D12268520701D5002BD8
:1053A000ABD061682A696848120201400A430921AA
:1053B000626022688A4313432360FFF7F7FEE368C5
:1053C0005C4A1B061B0FD35C5B49D8405B4B0860F3
:1053D0001868FEF73FFB002800D144E7A4E7002B44
:1053E00019D0092122688A4313432360FEF734FB56
:1053F000070004222368134207D062682B695249D0
:105400001B020A40134363602DE7FEF725FBC01B18
:105410000228EED987E70122236893432360FEF731
:105420001BFB070004222368134200D11BE7FEF791
:1054300013FBC01B0228F5D975E7EB69002B20D0C0
:10544000802322685B0013432360FEF705FB0700FF
:1054500080222368920013420DD06368344A1340BF
:105460006A6A1343636062682B6A12021B06120A9F
:105470001343636023E7FEF7EFFAC01B0228E7D966
:1054800051E72368314A13402360FEF7E5FA07002D
:10549000802223689200134200D110E7FEF7DCFA65
:1054A000C01B0228F4D93EE76A690123002A10D004
:1054B000226D13432365FEF7CFFA07000222236D06
:1054C000134200D0FFE6FEF7C7FAC01B0228F5D949
:1054D00029E7226D9A432265FEF7BEFA07000222F1
:1054E000236D134200D1EEE6FEF7B6FAC01B022888
:1054F000F5D918E780230021A26B5B0500911A42C1
:1055000004D1A26B1343A363012300938022104FA5
:1055100052003B6813421DD08022AB685200934278
:105520002CD1226D134323654DE0C046001002408C
:10553000FF1FFFFF1D27010890000020980000209A
:10554000FFFFFEFFFFFFFBFFFFE0FFFFFFFEFFFF90
:105550000070004080223B68520013433B60FEF71E
:105560007BFA019080223B6852001342D4D1FEF7AF
:1055700073FA019BC01A6428F4D9D4E6002B16D123
:10558000236D6B4A13402365236D6A4A13402365DC
:10559000FEF762FA07008022236D920013421AD0B0
:1055A000FEF75AFA644BC01B9842F4D9BBE6A0211F
:1055B000C9008B4218D18023216DDB000B4323658A
:1055C000236D1A432265FEF747FA07008022236DF8
:1055D0009200134210D0009B012B00D077E6A36B02
:1055E000564A1340A36372E6236D514A1340236564
:1055F000236D504A134096E7FEF72EFA4E4BC01B20
:105600009842E3D98FE6AA6901214D4B002A18D0B0
:10561000A2680A43A260626B0A4362638022196A2D
:1056200092010A431A62FEF717FA07000222A368E2
:10563000134200D04FE6FEF70FFAC01B0228F5D93F
:1056400071E6A2688A43A2601A6A3E490A401A6259
:10565000FEF702FA07000222A368134200D13AE6DD
:10566000FEF7FAF9C01B0228F5D95CE60C2E43D0F0
:10567000354A022B2ED12368802713402360FEF782
:10568000EBF90600BF0423683B421DD1296BEB6A8E
:10569000E2680B432D4980260A4013436A6BB60427
:1056A0001343E360802322685B0413432360FEF707
:1056B000D3F905002368334200D010E6FEF7CCF999
:1056C000401B0228F6D92EE6FEF7C6F9801B0228F9
:1056D000D9D928E62368802613402360FEF7BCF959
:1056E0000500B6042368334200D1F8E5FEF7B4F9AB
:1056F000401B0228F6D916E61800012B00D113E64C
:105700008022E368E96A52021A408A4200D0F4E536
:10571000F022296B92031A408A4200D0EDE5C022A4
:10572000120413406A6B934200D1D8E5E5E5C04608
:10573000FFFEFFFFFFFBFFFF88130000FFFFFFEFEF
:1057400000000140FFDFFFFFFFFFFFFEFFFF02FF42
:10575000F7B5041E019101D10120FEBD01255B4E6C
:10576000019A33682B40934231D32268930743D484
:10577000D20749D401253368019A2B40934209D9B5
:105780003368AB433360FEF767F9070033682B4299
:1057900000D08CE022684E4D530700D58FE01207F1
:1057A00006D5EA6823694B49DB000A401343EB60E6
:1057B000FFF7FCFCEB68484A1B061B0FD35C47490C
:1057C000D840474B08601868FEF744F9C5E73368CE
:1057D000019AAB4313433360FEF73EF90700336889
:1057E000019A2B409342C0D0FEF736F93D4BC01BC7
:1057F0009842F4D90320B0E7F0203549CB688343C1
:10580000A0680343CB60B3E7314D62682B68022A7E
:1058100018D19B03A0D50321EB688B431343EB60A6
:10582000FEF71AF963680700022B18D10C22EB6807
:105830001340082B9ED0FEF70FF92A4BC01B98424D
:10584000F4D9D7E7032A02D19B01E4D484E7012AE3
:1058500002D15B07DFD47FE79B05DCD47CE7032B19
:105860000BD10C22EB681340934283D0FEF7F4F87F
:105870001C4BC01B9842F4D9BCE7012B11D00C2261
:10588000EB68134200D175E7FEF7E6F8154BC01B35
:105890009842F4D9AEE7FEF7DFF8124BC01B9842EE
:1058A000A8D80C22EB681340042BF4D162E7FEF772
:1058B000D3F80C4BC01B984200D867E79AE7EB6817
:1058C00009490B40E1680B43EB6068E700200240A8
:1058D00000100240FFC7FFFF1D27010890000020B5
:1058E0009800002088130000FFF8FFFF044B054AD2
:1058F000DB6805495B055B0FCB5C1068D8407047DF
:1059000000100240900000202D270108044B054A9A
:10591000DB6805499B045B0FCB5C1068D84070477F
:1059200000100240900000202D2701080368F7B501
:1059300005009B063DD5802300215F4C5B05A26BD3
:1059400000911A4204D1A26B1343A3630123009375
:1059500080275A4E7F0033683B426CD068682268CB
:105960000100C0234240C0209B0280031940024234
:1059700000D071E0226D100018401A4200D074E08F
:105980006968C0230A009B021A409A4207D1236823
:105990004B480340C020800301400B432360236D2C
:1059A0001A43009B2265012B03D1A36B454A134088
:1059B000A3632B68DA0706D503203F49CA6C8243EC
:1059C000A8680243CA649A0706D50C203A49CA6CF3
:1059D0008243E8680243CA645A0706D536493A4802
:1059E000CA6C024028690243CA641A0706D53249C4
:1059F0003648CA6C024068690243CA64DA0506D5B3
:105A00002D493348CA6C0240A8690243CA645A0649
:105A100006D529492F48CA6C0240286A0243CA6445
:105A200000201B0617D5244A2B49D36C0B40E9698B
:105A30000B43D3640FE033683B433360FEF70CF84D
:105A4000019033683B4289D1FEF706F8019BC01AEA
:105A50006428F6D90320FEBD994200D08AE7226867
:105A60000120920300D485E7F5E7884200D187E75B
:105A70002B689B0600D483E78021236D206D0903EA
:105A800001432165216D124A14481A4001402165E5
:105A90002265DB0500D473E7FDF7DEFF80270600F3
:105AA000BF00236D3B4200D06AE7FDF7D5FF0C4BEA
:105AB000801B9842F5D9CDE70010024000700040ED
:105AC000FFFFCFFFFFFFFFEFFFF3FFFFFFCFFFFF62
:105AD000FFFFFCFFFFFFFFFBFFFFF3FFFFFFF7FFF1
